:020000040800F2
:1000000068040020D90100081D1A0008B51700086F
:10001000191A000831030008F1210008000000004F
:10002000000000000000000000000000891F000820
:100030003503000800000000951E0008E11F0008BD
:10004000F3010008F3010008F3010008F3010008C0
:10005000F3010008F3010008F3010008F3010008B0
:10006000F3010008F301000839030008F301000858
:10007000F3010008F3010008F3010008F301000890
:10008000F3010008F3010008F3010008F301000880
:10009000F3010008F3010008F3010008B5030008AC
:1000A000F3010008F3010008F3010008F301000860
:1000B000F3010008F3010008F3010008F301000850
:1000C000F3010008F3010008F3010008F301000840
:1000D000F3010008F3010008F3010008F301000830
:1000E000F3010008F3010008F3010008F301000820
:1000F000F3010008F3010008F3010008F301000810
:10010000F3010008F3010008F3010008F3010008FF
:10011000F3010008F3010008F3010008F3010008EF
:10012000F3010008F3010008F3010008F3010008DF
:10013000F30100080000000000000000F3010008C7
:10014000F3010008F3010008F3010008F3010008BF
:10015000F3010008F3010008F3010008F3010008AF
:10016000F3010008F3010008F3010008F30100089F
:10017000F3010008F3010008F3010008000000008B
:1001800000000000F3010008000000000000000073
:10019000F30100080000000000000000F301000867
:1001A000000000000000000000000000F301000853
:1001B000F3010008F3010008F3010008F30100084F
:1001C000F3010008DFF80CD000F07AF8004800478F
:1001D0003925000868040020064880470648004783
:1001E000FEE7FEE7FEE7FEE7FEE7FEE7FEE7FEE7E7
:1001F000FEE7FEE7A1200008C50100082DE9F05F39
:100200000546002092469B46884606468146402485
:100210001BE0284641464746224600F041F8534637
:100220005A46C01A914110D311461846224600F092
:1002300028F82D1A67EB01084F46224601200021BD
:1002400000F01FF817EB00094E41201EA4F1010435
:10025000DFDC484631462A464346BDE8F09FD2B22D
:1002600001E000F8012B491EFBD270470022F6E79F
:1002700010B513460A4604461946FFF7F0FF20461C
:1002800010BD202A04DB203A00FA02F1002070475A
:100290009140C2F1200320FA03F3194390407047C4
:1002A000202A04DB203A21FA02F00021704721FACB
:1002B00002F3D040C2F12002914008431946704732
:1002C0001CB509480090094801900546009C06E0CD
:1002D000E06840F0010394E8070098471034AC420E
:1002E000F6D3FFF773FF0000642F0008842F000887
:1002F00080B51421C4F20201086849F6C0721043A7
:1003000008604FF4FA6000F04FF980BD80B5142109
:10031000C4F20201086848F6802290430860086829
:1003200040F4AA5008604FF4FA6000F03DF980BD37
:10033000FFE7FEE77047000080B582B043F6144047
:10034000C4F201000068C006002831D5FFE743F67B
:100350001441C4F201011020086000F02DFB01904F
:10036000019840F25C01C2F200010968401A80085D
:100370004A2801D8FFE71BE0019840F25C01C2F275
:10038000000108601420C4F2020000684006002842
:1003900001D5FFE70CE01420C4F20200006800065B
:1003A000002804D5FFE7012002F0B6F8FFE7FFE7D9
:1003B00002B080BD80B584B000F0FEFA039043F631
:1003C0001440C4F2010000688006002831D5FFE720
:1003D00043F61441C4F201012020086000F0ECFA59
:1003E0000290029840F25C01C2F200010968401AD2
:1003F00080084A2801D8FFE78FE0029840F25C01AC
:10040000C2F2000108601420C4F202000068C005B6
:10041000002801D5FFE780E01420C4F20200006844
:100420008005002804D5FFE7022002F075F8FFE7F9
:10043000FFE743F61440C4F20100006840060028BC
:1004400031D5FFE743F61441C4F2010140200860B2
:1004500000F0B2FA0190019840F25C01C2F2000192
:100460000968401A80084A2801D8FFE755E001983A
:1004700040F25C01C2F2000108601420C4F20200E4
:1004800000684005002801D5FFE746E01420C4F2CB
:10049000020000680005002804D5FFE7032002F0F1
:1004A0003BF8FFE7FFE743F61440C4F201000068A1
:1004B0000006002831D5FFE743F61441C4F20101DC
:1004C0008020086000F078FA0090009840F25C010B
:1004D000C2F200010968401A80084A2801D8FFE7E3
:1004E0001BE0009840F25C01C2F200010860142099
:1004F000C4F202000068C004002801D5FFE70CE048
:100500001420C4F2020000680004002804D5FFE7AC
:10051000042002F001F8FFE7FFE704B080BD00000F
:1005200072B6FFE7FEE7000082B001900198013843
:1005300001460091032834D80099DFE801F0020E4B
:100540001A261421C4F20201086820F04000086055
:10055000086840F08000086023E01421C4F2020122
:10056000086820F480700860086840F40070086033
:1005700017E01421C4F20201086820F480600860CA
:10058000086840F4006008600BE01421C4F2020126
:10059000086820F480500860086840F40040086053
:1005A000FFE702B07047000080B584B0039000F010
:1005B00003FA0290039801900198013048B1FFE7D7
:1005C00040F20800C2F2000001780198084401904E
:1005D000FFE7FFE700F0F0F90299401A019988421D
:1005E00001D2FFE7F6E704B080BD00008DB00C90AB
:1005F0000B9100200990089007900A90FFE70A9855
:100600000F2800F2BE81FFE70A9901208840099077
:100610000B98006809990840089008980999884241
:1006200040F0AA81FFE70B98406800F00300012822
:1006300007D0FFE70B98406800F0030002282FD195
:10064000FFE70C98806807900A984100032000FAA1
:1006500001F10798884307900B98C0680A994900F0
:1006600000FA01F107980843079007980C998860F1
:100670000C98406807900A99012000FA01F1079848
:10068000884307900B984068C0F300100A9900FA5D
:1006900001F107980843079007980C994860FFE715
:1006A0000B98406800F00300032818D0FFE70C986F
:1006B000C06807900A984100032000FA01F10798EA
:1006C000884307900B9880680A99490000FA01F165
:1006D00007980843079007980C99C860FFE70B98A4
:1006E000406800F00300022826D1FFE70C980A9921
:1006F0006FF0030202EA51010844006A07900A9869
:1007000000F0070081000F2000FA01F107988843EC
:1007100007900B9800690A9901F00701890000FA17
:1007200001F107980843079007980C990A9B02EA81
:10073000530211440862FFE70C98006807900A987A
:100740004100032000FA01F10798884307900B98B5
:10075000406800F003000A99490000FA01F1079887
:100760000843079007980C9908600B9880798007D8
:10077000002800F00081FFE7FFE70020069043F625
:100780004400C4F20200016841F480410160006845
:1007900000F4804006900698FFE70A9820F00300D6
:1007A00043F60801C4F20101405807900A9800F08E
:1007B000030081000F2000FA01F107988843079099
:1007C0000C980021C4F20201884203D1FFE7002007
:1007D000059050E00C9840F20041C4F202018842BA
:1007E00003D1FFE70120049042E00C9840F600019D
:1007F000C4F20201884203D1FFE70220039034E0F3
:100800000C9840F60041C4F20201884203D1FFE790
:100810000320029026E00C9841F20001C4F202018C
:10082000884203D1FFE70420019018E00C9841F2C0
:100830000041C4F20201884203D1FFE70520009085
:100840000AE00C9941F60002C4F20202072091422C
:1008500008BF06200090FFE700980190FFE701988D
:100860000290FFE702980390FFE703980490FFE7E8
:1008700004980590FFE70598C0B20A9901F00301BA
:10088000890000FA01F107980843079007980A9930
:1008900021F0030143F60802C4F20102885043F636
:1008A0000840C4F20100006807900899079888433F
:1008B00007900B988079C006002805D5FFE70899B6
:1008C000079808430790FFE7079843F60841C4F2EA
:1008D0000101086043F60C40C4F201000068079073
:1008E00008990798884307900B988079800600281C
:1008F00005D5FFE70899079808430790FFE7079891
:1009000043F60C41C4F20101086043F60440C4F20E
:1009100001000068079008990798884307900B9892
:1009200080798007002805D5FFE7089907980843D4
:100930000790FFE7079843F60441C4F201010860FD
:1009400043F60040C4F20100006807900899079838
:10095000884307900B988079C00728B1FFE7089972
:10096000079808430790FFE7079843F60041C4F251
:1009700001010860FFE7FFE7FFE70A9801300A90EE
:100980003DE60DB07047000082B00190ADF8021056
:100990008DF801209DF8010028B1FFE7BDF80200A5
:1009A0000199886105E0BDF80200000401998861A1
:1009B000FFE702B07047000040F26400C2F200009E
:1009C0000068704740F20800C2F20000027840F26E
:1009D0006401C2F20001086810440860704700001A
:1009E00080B582B043F60041C4F20201086840F4C9
:1009F00000700860086840F480600860086840F48F
:100A000080700860032000F085F80020019000F05D
:100A100005F800F03BF8019802B080BD80B582B0C7
:100A2000009040F20000C2F20000006840F20801AD
:100A3000C2F200010A784FF47A71B1FBF2F1B0FB17
:100A4000F1F000F017FE20B1FFE701208DF807005C
:100A500018E000980F280DD8FFE700994FF0FF30FD
:100A6000002200F03DF8009840F20C01C2F20001B3
:100A7000086003E001208DF8070003E000208DF8F6
:100A80000700FFE79DF8070002B080BD80B582B087
:100A9000FFE70020019043F64400C4F20200016821
:100AA00041F480410160006800F4804001900198A9
:100AB000FFE7FFE70020009043F64000C4F2020089
:100AC000016841F080510160006800F080500090A2
:100AD0000098FFE7072000F01DF802B080BD00007D
:100AE00080B586B08DF81700049103920020029023
:100AF00001F098FB02909DF917000190029804996B
:100B0000039A00F08DFF0146019801F093FB06B0B7
:100B100080BD000080B582B00190019801F0ACFB6F
:100B200002B080BD80B584B002900191029820B9D6
:100B3000FFE701208DF80F0021E1019843F6004105
:100B4000C4F20201096801F00F01884212D9FFE7DF
:100B5000019943F60040C4F202000170006800F001
:100B60000F000199884204D0FFE701208DF80F00A3
:100B700005E1FFE702980078800700282AD5FFE703
:100B8000029800784007002809D5FFE743F60801DE
:100B9000C4F20201086840F4E0500860FFE70298E0
:100BA00000780007002809D5FFE743F60801C4F2E2
:100BB0000201086840F460400860FFE743F608015E
:100BC000C4F20201086820F0F000029A9268104313
:100BD0000860FFE702980078C00700286ED0FFE7A2
:100BE00002984068012811D1FFE743F60000C4F2E3
:100BF0000200006800F400310020B0EB514F04D136
:100C0000FFE701208DF80F00B9E02CE00298406862
:100C1000022805D0FFE702984068032811D1FFE7BA
:100C200043F60000C4F20200006800F000710020EA
:100C3000B0EB516F04D1FFE701208DF80F009EE06B
:100C400010E043F60000C4F20200006800F0020168
:100C50000020B0EB510F04D1FFE701208DF80F0009
:100C60008DE0FFE7FFE743F60801C4F202010868E0
:100C700020F00300029A526810430860FFF79CFEC0
:100C80000090FFE743F60800C4F20200006800F09D
:100C90000C0002994968B0EB810F0ED0FFE7FFF717
:100CA0008BFE0099401A41F28931884204D3FFE754
:100CB00003208DF80F0062E0E4E7FFE7019843F6B8
:100CC0000041C4F20201096801F00F01884212D20A
:100CD000FFE7019943F60040C4F20200017000688A
:100CE00000F00F000199884204D0FFE701208DF841
:100CF0000F0044E0FFE702980078400700280CD579
:100D0000FFE743F60801C4F20201086820F4E0504E
:100D1000029AD26810430860FFE702980078000743
:100D200000280DD5FFE743F60801C4F20201086868
:100D300020F46040029A126940EAC2000860FFE7AE
:100D400000F04CF843F60801C4F202010968C9B288
:100D50000A0942F6FE01C0F60001895CC84040F273
:100D60000001C2F20001086040F20C00C2F2000073
:100D70000068FFF753FE00208DF80F00FFE79DF895
:100D80000F0004B080BD000040F20000C2F200007D
:100D90000068704780B5FFF7F7FF43F60801C4F21B
:100DA00002010968C1F3822242F60E11C0F6000169
:100DB000895CC84080BD000080B5FFF7E5FF43F6C1
:100DC0000801C4F20201096889B24A0B42F60E1109
:100DD000C0F60001895CC84080BD000080B586B0C7
:100DE00000200590049003900290019043F60800C3
:100DF000C4F20200006800F00C00014600910C28CB
:100E000000F29B800099DFE801F0079898980D9810
:100E1000989813989898570042F20040C0F2F40056
:100E2000019090E041F20020C0F27A0001908AE047
:100E300043F60400C4F20200016801F03F0105918D
:100E400000684002002813D5FFE743F60400C4F20F
:100E500002000068C0F3881041F20021C0F27A015C
:100E6000A0FB0101059A0023FFF7C8F9049012E0E6
:100E700043F60400C4F202000068C0F3881042F296
:100E80000041C0F2F401A0FB0101059A0023FFF725
:100E9000B5F90490FFE743F60400C4F202000068CD
:100EA00000F44031022000EBD13003900498039904
:100EB000B0FBF1F0019046E043F60400C4F20200FA
:100EC000016801F03F01059100684002002813D538
:100ED000FFE743F60400C4F202000068C0F3881084
:100EE00041F20021C0F27A01A0FB0101059A002322
:100EF000FFF784F9049012E043F60400C4F2020004
:100F00000068C0F3881042F20041C0F2F401A0FB77
:100F10000101059A0023FFF771F90490FFE743F6FA
:100F20000400C4F202000068C0F30270029004984A
:100F30000299B0FBF1F0019005E042F20040C0F2EE
:100F4000F4000190FFE7019806B080BD80B586B03F
:100F50000490049820B9FFE701208DF8170084E37E
:100F600004980078C007002800F0BA80FFE743F635
:100F70000800C4F20200006800F00C00042828D029
:100F8000FFE743F60800C4F20200006800F00C001E
:100F900008280BD1FFE743F60400C4F20200006802
:100FA00000F48000B0F5800F13D0FFE743F608008F
:100FB000C4F20200006800F00C000C281ED1FFE70C
:100FC00043F60400C4F2020000684002002815D570
:100FD000FFE743F60000C4F20200006800F40031AD
:100FE0000020B0EB514F08D0FFE70498406820B9CB
:100FF000FFE701208DF8170037E370E0FFE7049862
:101000004068B0F5803F09D1FFE743F60001C4F224
:101010000201086840F48030086020E004984068CD
:10102000B0F5A02F0DD1FFE743F60001C4F2020195
:10103000086840F480200860086840F48030086048
:101040000CE043F60001C4F20201086820F480308D
:101050000860086820F480200860FFE7FFE7FFE7EA
:1010600004984068E8B1FFE7FFF7A6FC0390FFE7AC
:1010700043F60000C4F20200006800F400310020D2
:10108000B0EB514F0CD1FFE7FFF796FC0399401AE4
:10109000652804D3FFE703208DF81700E5E2E7E7B2
:1010A0001CE0FFF789FC0390FFE743F60000C4F261
:1010B0000200006800F400310020B0EB514F0CD06A
:1010C000FFE7FFF779FC0399401A652804D3FFE78F
:1010D00003208DF81700C8E2E7E7FFE7FFE7FFE727
:1010E000049800788007002840F1A980FFE743F6C4
:1010F0000800C4F20200006810F00C0F26D0FFE7D1
:1011000043F60800C4F20200006800F00C00082852
:1011100009D1FFE743F60400C4F202000068400270
:10112000002813D5FFE743F60800C4F20200006868
:1011300000F00C000C282CD1FFE743F60400C4F2A9
:10114000020000684002002823D4FFE743F60000B5
:10115000C4F20200006800F002010020B0EB510F61
:1011600009D0FFE70498C068012804D0FFE70120F8
:101170008DF8170079E243F60001C4F20201086815
:1011800020F0F800049A126940EAC2000860FFE704
:1011900054E00498C06870B3FFE70021C4F247210F
:1011A00001200860FFF708FC0390FFE743F600000A
:1011B000C4F20200006800F002010020B0EB510F01
:1011C0000CD1FFE7FFF7F8FB0399401A032804D37B
:1011D000FFE703208DF8170047E2E7E743F6000139
:1011E000C4F20201086820F0F800049A126940EA8B
:1011F000C200086021E00021C4F2472100200860FD
:10120000FFF7DAFB0390FFE743F60000C4F20200A9
:10121000006800F002010020B0EB510F0CD0FFE796
:10122000FFF7CAFB0399401A032804D3FFE7032002
:101230008DF8170019E2E7E7FFE7FFE7FFE70498FB
:101240000078000700284BD5FFE70498406918B3E1
:10125000FFE740F68061C4F2472101200860FFF7F4
:10126000ABFB0390FFE743F67400C4F20200006892
:1012700000F002010020B0EB510F0CD1FFE7FFF7A7
:101280009BFB0399401A032804D3FFE703208DF842
:101290001700EAE1E7E722E040F68061C4F2472167
:1012A00000200860FFF788FB0390FFE743F6740017
:1012B000C4F20200006800F002010020B0EB510F00
:1012C0000CD0FFE7FFF778FB0399401A032804D3FB
:1012D000FFE703208DF81700C7E1E7E7FFE7FFE727
:1012E000049800784007002840F1CE80FFE70020F6
:1012F0008DF8070043F64000C4F202000068C00009
:10130000002815D4FFE7FFE70020009043F64000D7
:10131000C4F20200016841F080510160006800F0F1
:10132000805000900098FFE701208DF80700FFE74C
:1013300047F20000C4F200000068C005002822D473
:10134000FFE747F20001C4F20001086840F4807032
:101350000860FFF731FB0390FFE747F20000C4F29B
:1013600000000068C00500280CD4FFE7FFF724FB4D
:101370000399401A032804D3FFE703208DF81700D0
:1013800073E1EAE7FFE7FFE704988068012809D1E5
:10139000FFE743F67001C4F20201086840F0010063
:1013A00008601FE00498806805280DD1FFE743F628
:1013B0007001C4F20201086840F004000860086887
:1013C00040F0010008600CE043F67001C4F2020135
:1013D000086820F001000860086820F00400086038
:1013E000FFE7FFE7FFE704988068F8B1FFE7FFF742
:1013F000E3FA0390FFE743F67000C4F202000068CE
:1014000000F002010020B0EB510F0ED1FFE7FFF713
:10141000D3FA0399401A41F28931884204D3FFE795
:1014200003208DF8170020E1E5E71EE0FFF7C4FA7E
:101430000390FFE743F67000C4F20200006800F07A
:1014400002010020B0EB510F0ED0FFE7FFF7B4FA16
:101450000399401A41F28931884204D3FFE70320FF
:101460008DF8170001E1E5E7FFE79DF80700012887
:1014700009D1FFE743F64001C4F20201086820F0F9
:1014800080500860FFE7FFE704988069002800F0BB
:10149000E880FFE743F60800C4F20200006800F0AD
:1014A0000C00082800F08880FFE704988069022873
:1014B0005FD1FFE76021C4F2472100200860FFF7F9
:1014C0007BFA0390FFE743F60000C4F202000068D5
:1014D00000F000710020B0EB516F0CD0FFE7FFF778
:1014E0006BFA0399401A032804D3FFE703208DF811
:1014F0001700BAE0E7E70499C869D1F820C04B6A41
:101500008A6A40EA0C0040EA8310D2034FF6FF7368
:101510009A43A2F580321043CA6A40EA0260096B1E
:1015200040EA017043F60401C4F202010860602140
:10153000C4F2472101200860FFF73EFA0390FFE75D
:1015400043F60000C4F20200006800F000710020C1
:10155000B0EB516F0CD1FFE7FFF72EFA0399401A59
:10156000032804D3FFE703208DF817007DE0E7E7A9
:1015700021E06021C4F2472100200860FFF71CFA37
:101580000390FFE743F60000C4F20200006800F099
:1015900000710020B0EB516F0CD0FFE7FFF70CFAA1
:1015A0000399401A032804D3FFE703208DF817009E
:1015B0005BE0E7E7FFE753E004988069012804D186
:1015C000FFE701208DF817004FE043F60400C4F256
:1015D0000200006802900498806901283AD0FFE771
:1015E000029800F480000499C969884232D1FFE76B
:1015F000029800F03F000499096A88422AD1FFE767
:10160000029847F6C07108400499496AB0EB811FFF
:1016100020D1FFE7029800F440300499896AC90399
:101620004FF6FF729143A1F58031884212D1FFE756
:10163000029800F070600499C96AB0EB016F09D19B
:10164000FFE7029800F0E0400499096BB0EB017FDE
:1016500004D0FFE701208DF8170006E0FFE7FFE761
:10166000FFE700208DF81700FFE79DF8170006B090
:1016700080BD000080B582B00190019800F086FC2A
:1016800002B080BD80B582B00090009820B9FFE71D
:1016900001208DF8070040E00098806908B1FFE75D
:1016A00000E0FFE7009890F8410040B9FFE700999B
:1016B000002081F84000009800F034F8FFE700991E
:1016C000242081F8410000980168C86820F4005087
:1016D000C860009800F0EEFC00980168086920F4EA
:1016E0009040086100980168486920F02A0048612C
:1016F00000980168C86840F40050C8600099002054
:101700004864009A202182F84110009A82F8421021
:10171000009948638DF80700FFE79DF8070002B0C5
:1017200080BD000080B588B007900020069005902D
:101730000490039002900798006844F20041C4F2BC
:101740000001884233D1FFE7FFE70020019043F614
:101750004000C4F20200016841F4003101600068F9
:1017600000F4003001900198FFE7FFE700200090AF
:1017700043F63000C4F20200016841F0010101604B
:10178000006800F0010000900098FFE70C20029034
:10179000022003900020049003200590072006906B
:1017A0000020C4F2020002A9FEF720FFFFE708B004
:1017B00080BD0000FFE7FEE784B002900298013888
:1017C00001460091032814D80099DFE801F00206D1
:1017D0000A0E0120ADF806000FE00420ADF8060067
:1017E0000BE01020ADF8060007E04020ADF8060041
:1017F00003E000208DF80F000DE040F61000C4F269
:1018000002000068BDF806100840002818BF01203B
:101810008DF80F00FFE79DF80F0004B0704700003F
:1018200084B002900298013801460091032814D830
:101830000099DFE801F002060A0E0220ADF806006A
:101840000FE00820ADF806000BE02020ADF8060000
:1018500007E08020ADF8060003E000208DF80F00BF
:101860000DE040F61000C4F202000068BDF806105A
:101870000840002818BF01208DF80F00FFE79DF8F1
:101880000F0004B07047000080B592B000201190A6
:1018900010900F900E900D90FFE700200C9043F6F3
:1018A0003000C4F20200016841F0040101600068E8
:1018B00000F004000C900C98FFE7FFE700200B906D
:1018C00043F63000C4F20200016841F0800101607B
:1018D000006800F080000B900B98FFE7FFE7002006
:1018E0000A9043F63000C4F20200016841F00101A1
:1018F0000160006800F001000A900A98FFE7FFE726
:101900000020099043F63000C4F20200016841F063
:1019100002010160006800F0020009900998FFE7E9
:101920000020C4F20200029049F6E0710191002209
:101930000492FFF729F8049A40F20040C4F2020032
:1019400007904FF4C0410391FFF71EF804984FF43D
:1019500000510D914FF4041105910E910F9040F636
:101960000000C4F2020000900DA90891FEF73EFEAF
:101970000098049A0899FF230D930E920122069273
:101980000F92FEF733FEDDF804C00298049A069B1E
:101990000899CDF834C00E930F921092FEF726FEF0
:1019A000DDF80CC0049A069B07980899CDF834C05E
:1019B0000E930F931092FEF719FE059B069A079857
:1019C00008994FF0F00CCDF834C00E930F92FEF74B
:1019D0000DFE12B080BD000080B582B040F2140050
:1019E000C2F20000019044F20041C4F20001016023
:1019F0004FF4E131416000218160C16001610C223E
:101A000042618161C161FFF73DFE18B1FFE7FEF75A
:101A100087FDFFE702B080BDFFE7FEE7FFE7FEE7D7
:101A200088B0079006910592079800F0070004908F
:101A30000498C0F10700052803D3FFE704200190B4
:101A400004E00498C0F107000190FFE701980390BB
:101A500004980430062803D8FFE70020009003E034
:101A6000049803380090FFE70098029006980399C5
:101A7000012202FA01F101390840029B98400599C0
:101A80009A40013A1140084308B0704780B582B0CF
:101A900000208DF80600FFE79DF80600072820DCEF
:101AA000FFE79DF806000021009100F01DF9009865
:101AB0008DF80700FFE79DF807007F280ADCFFE7A5
:101AC000002000F0D3F9FFE79DF8070001308DF802
:101AD0000700F0E7FFE79DF8060001308DF80600EB
:101AE000DAE702B080BD000080B582B0FFF7CCFE1F
:101AF00040F20040C4F2020000904FF40051012275
:101B00000192FEF741FF0098019A4FF48041FEF7E1
:101B10003BFF02B080BD000080B586B08DF8170095
:101B200000208DF81600FFE79DF81600072823DC3B
:101B3000FFE79DF817009DF816108840C0B2C20953
:101B400040F20040C4F2020003904FF48041FEF7DF
:101B50001BFF03984FF4005104910122FEF714FF7C
:101B6000039804990022FEF70FFFFFE79DF8160087
:101B700001308DF81600D7E740F20040C4F20200B1
:101B800001904FF4005102910122FEF7FDFE0198F1
:101B900002990022FEF7F8FE06B080BD80B586B03F
:101BA00040F20040C4F2020003904FF480410291E1
:101BB00001220192FEF7E8FE019A03984FF40051CA
:101BC0000491FEF7E1FE0299039800220592FEF7C8
:101BD000DBFE03980499059AFEF7D6FE06B080BD99
:101BE00080B584B040F20040C4F2020001904FF48E
:101BF000804102910022FEF7C7FE01984FF4005188
:101C000001220392FEF7C0FE01980299039AFEF7A3
:101C1000BBFE04B080BD000080B582B00020019002
:101C2000FFE70198C0087C2812D8FFE70020009049
:101C3000FFE70098C0087C2805D8FFE7FFE7009879
:101C400001300090F5E7FFE7019801300190E8E7E7
:101C5000FFF74AFFAE2000F0F5F8D52000F0F2F8CB
:101C6000802000F0EFF8A82000F0ECF83F2000F012
:101C7000E9F8D32000F0E6F8002000F0E3F8402077
:101C800000F0E0F8A12000F0DDF8C82000F0DAF85C
:101C9000DA2000F0D7F8122000F0D4F8812000F00C
:101CA000D1F8CF2000F0CEF8D92000F0CBF8F12009
:101CB00000F0C8F8DB2000F0C5F8302000F0C2F8D2
:101CC000A42000F0BFF8A62000F0BCF88D2000F0A2
:101CD000B9F8142000F0B6F8AF2000F0B3F8FFF721
:101CE000D5FE02B080BD000080B582B08DF807003F
:101CF0008DF806109DF8070040F0B00000F0A2F843
:101D00009DF806000009103000F09CF89DF80600D0
:101D100000F00F0000F096F802B080BD80B582B0F0
:101D20008DF807008DF806108DF805209DF8071036
:101D30006FF0010000EB41009DF806206FF00701F5
:101D400001EBC201C0B2C9B2FFF7CEFF00208DF88F
:101D50000400FFE79DF80400072819DCFFE79DF861
:101D6000051042F61610C0F6000000EB01109DF8B9
:101D7000041008444FF60061CFF6FF71405C00F09C
:101D800075F8FFE79DF8040001308DF80400E1E7E5
:101D90009DF807104FF0FF3000EB41009DF8062042
:101DA0006FF0070101EBC201C0B2C9B2FFF79CFF9F
:101DB00000208DF80400FFE79DF80400072819DCD7
:101DC000FFE79DF8051042F61610C0F6000000EB84
:101DD00001109DF8041008444FF60861CFF6FF711A
:101DE000405C00F043F8FFE79DF8040001308DF8F7
:101DF0000400E1E702B080BD80B584B08DF80F002B
:101E00008DF80E10029200208DF80700FFE702986F
:101E10009DF80710405C98B1FFE79DF80F009DF812
:101E20000E109DF807301944029AD25CC9B2FFF730
:101E300075FFFFE79DF8070001308DF80700E6E722
:101E400004B080BD80B582B08DF80700FFF7A6FE14
:101E50007820FFF761FE0020FFF75EFE9DF8070087
:101E6000FFF75AFEFFF7BCFE02B080BD80B582B01E
:101E70008DF80700FFF792FE7820FFF74DFE402017
:101E8000FFF74AFE9DF80700FFF746FEFFF7A8FEA2
:101E900002B080BD7047000080B582B0019001980B
:101EA000FFF78AFC8DF803000198FFF7B9FC8DF865
:101EB00002009DF8030058B9FFE79DF8020038B909
:101EC000FFE740F26001C2F200010120086018E063
:101ED0009DF8030001280CD1FFE79DF802000128BE
:101EE00007D1FFE740F26001C2F200010220086062
:101EF00006E040F26001C2F2000100200860FFE746
:101F0000FFE702B080BD000082B001900198013867
:101F100001460091032834D80099DFE801F0020E51
:101F20001A261421C4F20201086820F0800008601B
:101F3000086840F04000086023E01421C4F2020168
:101F4000086820F400700860086840F48070086039
:101F500017E01421C4F20201086820F40060086050
:101F6000086840F4806008600BE01421C4F20201AC
:101F7000086820F400400860086840F48050086059
:101F8000FFE702B0704700007047000080B582B0E4
:101F9000009000980138B0F1807F03D3FFE7012063
:101FA000019019E0009801384EF21401CEF20001C0
:101FB00008604FF0FF300F2100F03CF94EF218019D
:101FC000CEF20001002008604EF21002CEF20002B4
:101FD000072111600190FFE7019802B080BD000069
:101FE00080B5FEF7EFFC80BD80B594B007A8342122
:101FF000FEF73CF9002006900590049003900290B3
:10200000FFE70020019043F64000C4F2020001689F
:1020100041F080510160006800F08050019001980B
:10202000FFE7FFE70020009047F20000C4F2000045
:102030000168012262F38F310160006800F44040C2
:1020400000900098FFE70220079001210A911021DB
:102050000B910D9000220E920F914FF4A8711091E8
:10206000042111911290139007A8FEF76FFF18B189
:10207000FFE7FEF755FAFFE70F20029002210391D8
:10208000002004904FF480520592069002A8FEF7BB
:1020900049FD18B1FFE7FEF743FAFFE714B080BD32
:1020A0004EF68851CEF20001086840F470000860D6
:1020B0007047000080B586B00590059800680069FB
:1020C00020F44050059A1168D268104308610599C0
:1020D00088680B694A69C96918431043084304902A
:1020E00005980068C06849F20C6188430499084368
:1020F00005990968C86005980068406920F4407037
:10210000059A11689269104348610598006841F288
:102110000001C4F20101884209D0FFE70598006878
:1021200041F20041C4F20101884204D1FFE7FEF709
:1021300043FE039003E0FEF72DFE0390FFE70598B2
:10214000C069B0F5004F29D1FFE703981921A0FB22
:102150000101059A1368029353685A00DB0FFEF7DA
:102160004DF80299864648F21F53C5F2EB13AEFBB9
:102170000320420910014FF0640C02FB1CEC3222D8
:1021800002EBCC02A2FB0332F82303EA521300EB6A
:102190004300C2F342121044886026E003981921DC
:1021A000A0FB0101059A1368019353689A009B0FE5
:1021B000FEF724F80199844648F21F52C5F2EB124B
:1021C000ACFB02304309642003FB10CC322000EB4F
:1021D0000C10A0FB0202F02000EA521000EB0310EA
:1021E000C2F3431210448860FFE706B080BD0000D0
:1021F000FFE7FEE781B08DF803009DF9030000289A
:102200000ED4FFE79DF9031001F01F02012090405A
:102210004A094EF20011CEF2000141F82200FFE718
:1022200001B070474EF60C50CEF200000068C0F3CB
:102230000220704782B08DF8070000919DF90700D9
:1022400000280AD4FFE7009800019DF907104EF21C
:102250000042CEF2000288540BE0009800019DF885
:10226000071001F00F014EF61452CEF2000288540E
:10227000FFE702B07047000083B00290029800F0C0
:10228000070000904EF60C51CEF200010868019054
:1022900001984FF6FF02104001900198009A40EA21
:1022A00002200022C0F2FA52104301900198086007
:1022B00003B0704780B588B0079040F26000C2F26A
:1022C00000000068059020B1FFE7059801285DD067
:1022D000C7E00798013801460491032824D80499DF
:1022E000DFE801F0020A121A1421C4F202010868A0
:1022F00020F08000086017E01421C4F20201086891
:1023000020F4007008600FE01421C4F20201086894
:1023100020F40060086007E01421C4F2020108689C
:1023200020F400400860FFE7C820FEF73DF9079859
:10233000013801460391032824D80399DFE801F00E
:10234000020A121A1421C4F20201086840F0800047
:10235000086017E01421C4F20201086840F400701C
:1023600008600FE01421C4F20201086840F4006024
:10237000086007E01421C4F20201086840F400403C
:102380000860FFE7C820FEF70FF96AE0002006901A
:10239000FFE70698012863DCFFE70798013801464C
:1023A0000291032824D80299DFE801F0020A121AE8
:1023B0001421C4F20201086820F08000086017E0D0
:1023C0001421C4F20201086820F4007008600FE0D4
:1023D0001421C4F20201086820F40060086007E0DC
:1023E0001421C4F20201086820F400400860FFE7ED
:1023F0004FF4FA70FEF7D8F80798013801460191BA
:10240000032824D80199DFE801F0020A121A1421E6
:10241000C4F20201086840F08000086017E014214F
:10242000C4F20201086840F4007008600FE0142153
:10243000C4F20201086840F40060086007E014215B
:10244000C4F20201086840F400400860FFE74FF45E
:10245000FA70FEF7A9F8FFE706980130069098E7B2
:10246000FFE708B080BD000080B584B00390002075
:102470008DF80B0041F28830009001900398FEF730
:1024800053F8C820FEF790F80398FFF713FF009861
:10249000FEF78AF8FFE79DF80B00042826DCFFE72B
:1024A0000398FFF789F9F8B9FFE7C820FEF77CF831
:1024B0000398FFF781F9A8B9FFE74FF4FA60FEF738
:1024C00073F8019800F5FA6001909DF80B00013057
:1024D0008DF80B00019843F69821884201D3FFE75D
:1024E00004E000E002E000E000E0D4E70398FFF73A
:1024F0000BFD04B080BD000080B582B00190019852
:10250000FEF712F840F6B830FEF74EF80198FFF7E4
:10251000FBFC02B080BD000080B582B0019042F6A5
:102520000E72C0F6000204210846FFF765FC019810
:10253000FFF7EAFC02B080BD80B588B000200290B1
:102540000790FEF74DFA029872B643F63002C4F2D5
:102550000202116841F0870111600022C4F20202F8
:1025600045F20001C4F2551111600421C4F20201C8
:1025700008600C21C4F20201086040F60001C4F2B8
:102580000201086040F60C01C4F20201086040F24A
:102590000042C4F202024FF0A051116040F2044127
:1025A000C4F20201086040F20C41C4F2020145F29B
:1025B0000050C1F20040086043F64401C4F2020139
:1025C000086840F48040086043F60C03C4F201033D
:1025D0000393186840F00100186043F60042C4F20B
:1025E00001020492106840F01000106043F60C41A4
:1025F000C4F201010591086840F0100008601868F5
:1026000040F010001860106840F02000106008686A
:1026100040F020000860186840F48070186010686E
:1026200040F040001060086840F040000860186802
:1026300040F480501860106840F080001060086816
:1026400040F0800008600A20FFF7D4FD1720FFF754
:10265000D1FD62B662B6FFF7C7FCFFF7BDF9FFF721
:10266000DBFA42F61A72C0F6000202210846FFF7B2
:10267000C3FB4FF47A70FDF797FF01200690FDF73A
:1026800037FEFDF743FEFFF701FAFFE7FFE7069885
:1026900004283ADCFFE7069840F20401C2F2000188
:1026A00008600698FFF7F8FB40F26000C2F20000F5
:1026B0000090006840F21001C2F20001086000F0D2
:1026C0003DF800980068019040B1FFE701980128AB
:1026D00008D0FFE70198022808D00BE0069800F028
:1026E00017F80BE00698FFF7BFFE07E00698FFF724
:1026F00003FF03E0069800F00BF8FFE7FFF7C6F9C9
:10270000FFE7069801300690C1E701200690BDE77B
:1027100080B582B001900198FDF706FFC820FDF753
:1027200043FF0198FFF7C6FD41F28830FDF73CFFFB
:102730000198FFF7E9FB02B080BD000080B586B0CC
:1027400042F63772C0F6000201210846FFF754FB3B
:1027500040F20400C2F20000006801380146059111
:10276000032828D80599DFE801F0020B141D42F672
:102770003E72C0F6000201200721FFF73DFB23E077
:1027800042F64072C0F6000201200721FFF734FB39
:102790001AE042F64272C0F6000201200721FFF75C
:1027A0002BFB11E042F64472C0F600020120072123
:1027B000FFF722FB08E042F63E72C0F6000201205D
:1027C0000721FFF719FBFFE742F63072C0F600025F
:1027D000022003900121FFF70FFB039842F60672D7
:1027E000C0F600020721FFF707FB40F21000C2F21B
:1027F00000000068049040B1FFE7049801280DD064
:10280000FFE70498022812D01AE042F64672C0F69A
:10281000000202200721FFF7EFFA1AE042F65E728B
:10282000C0F6000202200721FFF7E6FA11E042F6A7
:102830005672C0F6000202200721FFF7DDFA08E019
:1028400042F64672C0F6000202200721FFF7D4FAD2
:10285000FFE742F62A72C0F6000203200190012130
:10286000FFF7CAFA019842F60672C0F60002072185
:10287000FFF7C2FA40F21000C2F2000000680290B6
:1028800040B1FFE7029801280DD0FFE70298022827
:1028900012D01AE042F65372C0F60002032007215C
:1028A000FFF7AAFA1AE042F65072C0F600020320BF
:1028B0000721FFF7A1FA11E042F64D72C0F60002BF
:1028C00003200721FFF798FA08E042F65372C0F69A
:1028D000000203200721FFF78FFAFFE706B080BD53
:1028E00002E008C8121F08C1002AFAD170477047D9
:1028F000002001E001C1121F002AFBD17047000037
:10290000000000000000010203040607080900009F
:1029100000000102030400000000000000000000AD
:10292000000000000000000000F8000000000000AF
:1029300000333000000000100C06100C06000000F0
:1029400000000000000040C07840C0784000043F14
:1029500004043F040400007088FC083000000018E4
:1029600020FF211E0000F008F000E0180000002108
:102970001C031E211E0000F00888700000001E21AC
:1029800023241927211010160E000000000000005B
:10299000000000000000000000E018040200000039
:1029A00000071820400000020418E000000000406A
:1029B000201807000000404080F0804040000202E4
:1029C000010F01020200000000F000000000010100
:1029D000011F01010100000000000000000080B0A4
:1029E0007000000000000000000000000000000176
:1029F00001010101010100000000000000000030A1
:102A0000300000000000000000008060180400603A
:102A100018060100000000E010080810E000000F98
:102A2000102020100F00001010F8000000000020FF
:102A3000203F202000000070080808887000003047
:102A400028242221300000300888884830000018EF
:102A5000202020110E000000C02010F80000000708
:102A60000424243F240000F808888808080000197E
:102A7000212020110E0000E0108888180000000FAF
:102A8000112020110E0000380808C8380800000086
:102A9000003F000000000070880808887000001CDB
:102AA000222121221C0000E010080810E000000094
:102AB000312222110F00000000C0C0000000000001
:102AC0000030300000000000008000000000000026
:102AD000806000000000000080402010080000011D
:102AE00002040810200040404040404040000404E0
:102AF00004040404040000081020408000000020AA
:102B0000100804020100007048080808F0000000E6
:102B1000003036010000C030C828E810E000071877
:102B2000272423140B000000C038E0000000203CE4
:102B300023020227382008F8888888700000203F88
:102B4000202020110E00C03008080808380007189F
:102B500020202010080008F808080810E000203F96
:102B6000202020100F0008F88888E8081000203F77
:102B700020202320180008F88888E8081000203F4B
:102B8000200003000000C0300808083800000718C3
:102B90002020221E020008F808000008F808203F44
:102BA000210101213F20000808F80808000000204A
:102BB000203F2020000000000808F8080800C0801E
:102BC00080807F00000008F888C028180800203F97
:102BD00020012638200008F8080000000000203FEF
:102BE00020202020300008F8F800F8F80800203FE6
:102BF000003F003F200008F830C00008F808203FE0
:102C0000200007183F00E01008080810E0000F102F
:102C1000202020100F0008F808080808F000203FC6
:102C2000210101010000E01008080810E0000F1861
:102C3000242438504F0008F8888888887000203F86
:102C40002000030C30200070880808083800003885
:102C5000202121221C00180808F80808180000008C
:102C6000203F2000000008F808000008F808001FB6
:102C7000202020201F000878880000C838080000A5
:102C800007380E010000F80800F80008F800033CBF
:102C90000700073C03000818688080681808203087
:102CA0002C03032C30200838C800C8380800000066
:102CB000203F2000000010080808C838080020380D
:102CC000262120201800000000FE02020200000061
:102CD000007F40404000000C30C0000000000000B9
:102CE00000010638C00000020202FE0000000040A1
:102CF00040407F00000000000402020204000000C7
:102D000000000000000000000000000000008080C3
:102D100080808080808000020204000000000000AB
:102D2000000000000000000080808080000000198A
:102D3000242222223F2008F8008080000000003F6B
:102D4000112020110E000000008080800000000E85
:102D5000112020201100000000808088F800000E63
:102D6000112020103F200000808080800000001F84
:102D7000222222221300008080F0888888180020F8
:102D8000203F202000000000808080808000006BB9
:102D900094949493600008F8008080800000203FA5
:102DA000210000203F2000809898000000000020B3
:102DB000203F20200000000000809898000000C004
:102DC0008080807F000008F8000080808000203F25
:102DD00024022D302000000808F800000000002028
:102DE000203F202000008080808080808000203F65
:102DF00020003F20003F8080008080800000203F36
:102E0000210000203F200000808080800000001F03
:102E1000202020201F00808000808000000080FF94
:102E2000A12020110E000000008080808000000E94
:102E3000112020A0FF8080808000808080002020E2
:102E40003F2120000100000080808080800000334E
:102E5000242424241900008080E0808000000000E9
:102E6000001F202000008080000000808000001FE4
:102E7000202020103F208080800000808080000182
:102E80000E300806010080800080008080800F30B6
:102E90000C030C300F000080800080808000002038
:102EA000312E0E3120008080800000808080808163
:102EB0008E701806010000808080808080000021D4
:102EC000302C2221300000000000807C0202000033
:102ED0000000003F404000000000FF000000000034
:102EE0000000FF0000000002027C800000000040A3
:102EF000403F00000000000601010202040400003F
:102F0000000000000000202020202020200041633D
:102F1000726F7373696E67212000496E697469610D
:102F20006C697A696E672E2E2E0054696D653A00C1
:102F300053746174653A0047726F75703A004100CE
:102F40004200430044004E6F726D616C00337300A9
:102F5000352D313573004361726C657373004275B2
:102F600073790000882F0008000000201000000086
:102F7000E0280008982F00081000002058040000E6
:102F8000F0280008000000000024F4000100000008
:082F9000010000001000000028
:04000005080001C529
:00000001FF
